:03000000020050AB
:03001B000200D907
:1000500075A888758920758D9CD28E75A0007590C5
:10006000FF780079007400C2B7C2B6C2B51200C7EB
:10007000D2B61200C7D2B51200C7C2B61200C7C2AC
:10008000B530B3FDD2B4E590F8D2B7C2B6C2B5125E
:1000900000C7D2B61200C7D2B51200C7C2B612004E
:1000A000C7C2B530B3FDD2B4E590F99860B340044F
:1000B000500C80ADC3D2A211D0C2A2020061D2A363
:1000C00011D0C2A30200617C017D1FDDFEDCFA229B
:0C00D0007C0F7D5FDDFEDCFA22B2B23254
:00000001FF
